{
  "contractName": "Lottery",
  "abi": [
    {
      "inputs": [],
      "stateMutability": "nonpayable",
      "type": "constructor"
    },
    {
      "anonymous": false,
      "inputs": [
        {
          "indexed": false,
          "internalType": "uint256",
          "name": "id",
          "type": "uint256"
        },
        {
          "indexed": false,
          "internalType": "string",
          "name": "winAmount",
          "type": "string"
        }
      ],
      "name": "Result",
      "type": "event"
    },
    {
      "anonymous": false,
      "inputs": [
        {
          "indexed": false,
          "internalType": "uint256",
          "name": "startRound",
          "type": "uint256"
        },
        {
          "indexed": false,
          "internalType": "uint256",
          "name": "endRound",
          "type": "uint256"
        }
      ],
      "name": "Timer",
      "type": "event"
    },
    {
      "anonymous": false,
      "inputs": [
        {
          "indexed": false,
          "internalType": "uint256",
          "name": "id",
          "type": "uint256"
        },
        {
          "indexed": false,
          "internalType": "address",
          "name": "player",
          "type": "address"
        },
        {
          "indexed": false,
          "internalType": "string",
          "name": "win",
          "type": "string"
        },
        {
          "indexed": false,
          "internalType": "uint256",
          "name": "prize",
          "type": "uint256"
        }
      ],
      "name": "Win",
      "type": "event"
    },
    {
      "anonymous": false,
      "inputs": [
        {
          "indexed": false,
          "internalType": "uint256",
          "name": "id",
          "type": "uint256"
        },
        {
          "indexed": false,
          "internalType": "uint256[3]",
          "name": "ramdom",
          "type": "uint256[3]"
        },
        {
          "indexed": false,
          "internalType": "string",
          "name": "coefficient",
          "type": "string"
        },
        {
          "indexed": false,
          "internalType": "uint256",
          "name": "total",
          "type": "uint256"
        }
      ],
      "name": "newRound",
      "type": "event"
    },
    {
      "anonymous": false,
      "inputs": [
        {
          "indexed": false,
          "internalType": "uint256",
          "name": "id",
          "type": "uint256"
        },
        {
          "indexed": false,
          "internalType": "uint256[3]",
          "name": "number",
          "type": "uint256[3]"
        },
        {
          "indexed": false,
          "internalType": "string",
          "name": "coefficient",
          "type": "string"
        },
        {
          "indexed": false,
          "internalType": "uint256",
          "name": "roundID",
          "type": "uint256"
        },
        {
          "indexed": false,
          "internalType": "address",
          "name": "player",
          "type": "address"
        },
        {
          "indexed": false,
          "internalType": "uint256",
          "name": "price",
          "type": "uint256"
        }
      ],
      "name": "newTicket",
      "type": "event"
    },
    {
      "anonymous": false,
      "inputs": [
        {
          "indexed": false,
          "internalType": "address",
          "name": "player",
          "type": "address"
        },
        {
          "indexed": false,
          "internalType": "uint256",
          "name": "tongve",
          "type": "uint256"
        },
        {
          "indexed": false,
          "internalType": "uint256",
          "name": "tongtien",
          "type": "uint256"
        }
      ],
      "name": "totalMoney",
      "type": "event"
    },
    {
      "inputs": [],
      "name": "RoundId",
      "outputs": [
        {
          "internalType": "uint256",
          "name": "",
          "type": "uint256"
        }
      ],
      "stateMutability": "view",
      "type": "function",
      "constant": true
    },
    {
      "inputs": [],
      "name": "TicketID",
      "outputs": [
        {
          "internalType": "uint256",
          "name": "",
          "type": "uint256"
        }
      ],
      "stateMutability": "view",
      "type": "function",
      "constant": true
    },
    {
      "inputs": [],
      "name": "TotalJP1",
      "outputs": [
        {
          "internalType": "uint256",
          "name": "",
          "type": "uint256"
        }
      ],
      "stateMutability": "view",
      "type": "function",
      "constant": true
    },
    {
      "inputs": [],
      "name": "TotalJP2",
      "outputs": [
        {
          "internalType": "uint256",
          "name": "",
          "type": "uint256"
        }
      ],
      "stateMutability": "view",
      "type": "function",
      "constant": true
    },
    {
      "inputs": [],
      "name": "TotalTicket",
      "outputs": [
        {
          "internalType": "uint256",
          "name": "",
          "type": "uint256"
        }
      ],
      "stateMutability": "view",
      "type": "function",
      "constant": true
    },
    {
      "inputs": [],
      "name": "endTime",
      "outputs": [
        {
          "internalType": "uint256",
          "name": "",
          "type": "uint256"
        }
      ],
      "stateMutability": "view",
      "type": "function",
      "constant": true
    },
    {
      "inputs": [],
      "name": "gameID",
      "outputs": [
        {
          "internalType": "uint256",
          "name": "",
          "type": "uint256"
        }
      ],
      "stateMutability": "view",
      "type": "function",
      "constant": true
    },
    {
      "inputs": [
        {
          "internalType": "uint256",
          "name": "",
          "type": "uint256"
        }
      ],
      "name": "games",
      "outputs": [
        {
          "internalType": "uint256",
          "name": "id",
          "type": "uint256"
        },
        {
          "internalType": "uint256",
          "name": "amout",
          "type": "uint256"
        },
        {
          "internalType": "address",
          "name": "player",
          "type": "address"
        },
        {
          "internalType": "uint256",
          "name": "sochon",
          "type": "uint256"
        },
        {
          "internalType": "uint256",
          "name": "ramdom",
          "type": "uint256"
        },
        {
          "internalType": "string",
          "name": "kq",
          "type": "string"
        }
      ],
      "stateMutability": "view",
      "type": "function",
      "constant": true
    },
    {
      "inputs": [],
      "name": "owner",
      "outputs": [
        {
          "internalType": "address",
          "name": "",
          "type": "address"
        }
      ],
      "stateMutability": "view",
      "type": "function",
      "constant": true
    },
    {
      "inputs": [
        {
          "internalType": "uint256",
          "name": "",
          "type": "uint256"
        }
      ],
      "name": "rounds",
      "outputs": [
        {
          "internalType": "uint256",
          "name": "id",
          "type": "uint256"
        },
        {
          "internalType": "string",
          "name": "coefficient",
          "type": "string"
        },
        {
          "internalType": "uint256",
          "name": "total",
          "type": "uint256"
        }
      ],
      "stateMutability": "view",
      "type": "function",
      "constant": true
    },
    {
      "inputs": [
        {
          "internalType": "uint256",
          "name": "",
          "type": "uint256"
        }
      ],
      "name": "tickets",
      "outputs": [
        {
          "internalType": "uint256",
          "name": "id",
          "type": "uint256"
        },
        {
          "internalType": "string",
          "name": "coefficient",
          "type": "string"
        },
        {
          "internalType": "uint256",
          "name": "roundID",
          "type": "uint256"
        },
        {
          "internalType": "address",
          "name": "player",
          "type": "address"
        },
        {
          "internalType": "uint256",
          "name": "price",
          "type": "uint256"
        },
        {
          "internalType": "string",
          "name": "win",
          "type": "string"
        },
        {
          "internalType": "uint256",
          "name": "prize",
          "type": "uint256"
        }
      ],
      "stateMutability": "view",
      "type": "function",
      "constant": true
    },
    {
      "inputs": [
        {
          "internalType": "address",
          "name": "",
          "type": "address"
        }
      ],
      "name": "ves",
      "outputs": [
        {
          "internalType": "uint256",
          "name": "ve",
          "type": "uint256"
        }
      ],
      "stateMutability": "view",
      "type": "function",
      "constant": true
    },
    {
      "inputs": [
        {
          "internalType": "uint256[3]",
          "name": "numbers",
          "type": "uint256[3]"
        }
      ],
      "name": "buyTicket",
      "outputs": [],
      "stateMutability": "payable",
      "type": "function",
      "payable": true
    },
    {
      "inputs": [
        {
          "internalType": "uint256",
          "name": "quantity",
          "type": "uint256"
        }
      ],
      "name": "buyMutilTickets",
      "outputs": [],
      "stateMutability": "payable",
      "type": "function",
      "payable": true
    },
    {
      "inputs": [],
      "name": "dial",
      "outputs": [],
      "stateMutability": "nonpayable",
      "type": "function"
    },
    {
      "inputs": [],
      "name": "getRound",
      "outputs": [
        {
          "components": [
            {
              "internalType": "uint256",
              "name": "id",
              "type": "uint256"
            },
            {
              "internalType": "uint256[3]",
              "name": "number",
              "type": "uint256[3]"
            },
            {
              "internalType": "string",
              "name": "coefficient",
              "type": "string"
            },
            {
              "internalType": "uint256",
              "name": "total",
              "type": "uint256"
            }
          ],
          "internalType": "struct Lottery.Round[]",
          "name": "",
          "type": "tuple[]"
        }
      ],
      "stateMutability": "view",
      "type": "function",
      "constant": true
    },
    {
      "inputs": [],
      "name": "getTicket",
      "outputs": [
        {
          "components": [
            {
              "internalType": "uint256",
              "name": "id",
              "type": "uint256"
            },
            {
              "internalType": "uint256[3]",
              "name": "number",
              "type": "uint256[3]"
            },
            {
              "internalType": "string",
              "name": "coefficient",
              "type": "string"
            },
            {
              "internalType": "uint256",
              "name": "roundID",
              "type": "uint256"
            },
            {
              "internalType": "address",
              "name": "player",
              "type": "address"
            },
            {
              "internalType": "uint256",
              "name": "price",
              "type": "uint256"
            },
            {
              "internalType": "string",
              "name": "win",
              "type": "string"
            },
            {
              "internalType": "uint256",
              "name": "prize",
              "type": "uint256"
            }
          ],
          "internalType": "struct Lottery.Ticket[]",
          "name": "",
          "type": "tuple[]"
        }
      ],
      "stateMutability": "view",
      "type": "function",
      "constant": true
    },
    {
      "inputs": [
        {
          "internalType": "uint256",
          "name": "_index",
          "type": "uint256"
        }
      ],
      "name": "removeArray",
      "outputs": [],
      "stateMutability": "nonpayable",
      "type": "function"
    },
    {
      "inputs": [
        {
          "internalType": "uint256",
          "name": "_index",
          "type": "uint256"
        }
      ],
      "name": "getRamdomArray",
      "outputs": [
        {
          "internalType": "uint256",
          "name": "",
          "type": "uint256"
        }
      ],
      "stateMutability": "view",
      "type": "function",
      "constant": true
    },
    {
      "inputs": [
        {
          "internalType": "uint256",
          "name": "_index",
          "type": "uint256"
        }
      ],
      "name": "getRamdomCoefficient",
      "outputs": [
        {
          "internalType": "uint256",
          "name": "",
          "type": "uint256"
        }
      ],
      "stateMutability": "view",
      "type": "function",
      "constant": true
    },
    {
      "inputs": [],
      "name": "getBalance",
      "outputs": [
        {
          "internalType": "uint256",
          "name": "",
          "type": "uint256"
        }
      ],
      "stateMutability": "view",
      "type": "function",
      "constant": true
    },
    {
      "inputs": [
        {
          "internalType": "uint256",
          "name": "chon",
          "type": "uint256"
        }
      ],
      "name": "GameMini1",
      "outputs": [],
      "stateMutability": "payable",
      "type": "function",
      "payable": true
    },
    {
      "inputs": [
        {
          "internalType": "uint256",
          "name": "_index",
          "type": "uint256"
        }
      ],
      "name": "getRamdom",
      "outputs": [
        {
          "internalType": "uint256",
          "name": "",
          "type": "uint256"
        }
      ],
      "stateMutability": "view",
      "type": "function",
      "constant": true
    },
    {
      "inputs": [
        {
          "internalType": "uint256[3]",
          "name": "numbers",
          "type": "uint256[3]"
        }
      ],
      "name": "buyTicketGame",
      "outputs": [],
      "stateMutability": "nonpayable",
      "type": "function"
    }
  ],
  "bytecode": "0x60b4600355600060048181556005829055600682905560078290556008919091556001610100818152604160f81b610120526080908152610140828152602160f91b6101605260a052610180828152604360f81b6101a05260c0526102006040526101c0918252601160fa1b6101e05260e091909152620000849160099190620001c3565b50604080516101408101825260008152600160208201526002918101919091526003606082015260046080820152600560a0820152600660c0820152600760e082015260086101008201526009610120820152620000e690600a908162000227565b506000600d55348015620000f957600080fd5b50600080546001600160a01b03191633179055620001166200011c565b6200044d565b6002544211620001495760405162461bcd60e51b8152600401620001409062000372565b60405180910390fd5b600254421115620001c15760048054906000620001668362000419565b90915550504260018190556003546200017f91620003c1565b60028190556001546040517f128fb73f2ab78d09be13785bd8bba77b0416aff50ef1188f9b674b3eda32866492620001b89291620003b3565b60405180910390a15b565b82805482825590600052602060002090810192821562000215579160200282015b828111156200021557825180516200020491849160209091019062000278565b5091602001919060010190620001e4565b5062000223929150620002f5565b5090565b8280548282559060005260206000209081019282156200026a579160200282015b828111156200026a578251829060ff1690559160200191906001019062000248565b506200022392915062000316565b8280546200028690620003dc565b90600052602060002090601f016020900481019282620002aa57600085556200026a565b82601f10620002c557805160ff19168380011785556200026a565b828001600101855582156200026a579182015b828111156200026a578251825591602001919060010190620002d8565b80821115620002235760006200030c82826200032d565b50600101620002f5565b5b8082111562000223576000815560010162000317565b5080546200033b90620003dc565b6000825580601f106200034f57506200036f565b601f0160209004906000526020600020908101906200036f919062000316565b50565b60208082526021908201527f54686f69206769616e206368756120686574206b6f20746865206261742064616040820152607560f81b606082015260800190565b918252602082015260400190565b60008219821115620003d757620003d762000437565b500190565b600281046001821680620003f157607f821691505b602082108114156200041357634e487b7160e01b600052602260045260246000fd5b50919050565b600060001982141562000430576200043062000437565b5060010190565b634e487b7160e01b600052601160045260246000fd5b613890806200045d6000396000f3fe60806040526004361061014b5760003560e01c80638da5cb5b116100b6578063c20d79731161006f578063c20d797314610370578063c4c4e42514610390578063c7dd4b4f146103b0578063c7de5b43146103c5578063dd9904f1146103e5578063f869a064146103f85761014b565b80638da5cb5b146102cd57806397bcd064146102ef5780639f8743f714610302578063ae811abc14610324578063b5a1b0d514610339578063c002c4d61461034e5761014b565b806350b447121161010857806350b447121461020c578063661ef75d1461023f57806376212f46146102545780638bd8a74e146102695780638c65c81f1461028b5780638c887bda146102ba5761014b565b806309df655c1461015057806310fde37f14610186578063117a5b901461019b57806312065fe0146101cd5780633197cbb6146101e2578063509a13dd146101f7575b600080fd5b34801561015c57600080fd5b5061017061016b3660046130f8565b610418565b60405161017d91906132b5565b60405180910390f35b34801561019257600080fd5b50610170610464565b3480156101a757600080fd5b506101bb6101b63660046130f8565b61046a565b60405161017d969594939291906136bb565b3480156101d957600080fd5b50610170610535565b3480156101ee57600080fd5b50610170610539565b34801561020357600080fd5b5061017061053f565b34801561021857600080fd5b5061022c6102273660046130f8565b610545565b60405161017d979695949392919061362f565b34801561024b57600080fd5b506101706106b2565b34801561026057600080fd5b506101706106b8565b34801561027557600080fd5b50610289610284366004613076565b6106be565b005b34801561029757600080fd5b506102ab6102a63660046130f8565b6109f2565b60405161017d93929190613606565b6102896102c83660046130f8565b610ab0565b3480156102d957600080fd5b506102e2610b80565b60405161017d91906132be565b6102896102fd366004613076565b610b8f565b34801561030e57600080fd5b50610317610ebe565b60405161017d91906132f3565b34801561033057600080fd5b50610289611158565b34801561034557600080fd5b50610170611516565b34801561035a57600080fd5b5061036361151c565b60405161017d9190613389565b34801561037c57600080fd5b5061017061038b3660046130f8565b61186c565b34801561039c57600080fd5b506101706103ab3660046130f8565b61187b565b3480156103bc57600080fd5b5061017061188d565b3480156103d157600080fd5b506102896103e03660046130f8565b611893565b6102896103f33660046130f8565b61197a565b34801561040457600080fd5b5061017061041336600461304f565b611d97565b600a54600090819061042a8442613700565b60405160200161043a91906132b5565b6040516020818303038152906040528051906020012060001c61045d91906137e4565b9392505050565b60085481565b600e60205260009081526040902080546001820154600283015460038401546004850154600586018054959694956001600160a01b039094169492939192916104b29061378e565b80601f01602080910402602001604051908101604052809291908181526020018280546104de9061378e565b801561052b5780601f106105005761010080835404028352916020019161052b565b820191906000526020600020905b81548152906001019060200180831161050e57829003601f168201915b5050505050905086565b4790565b60025481565b60045481565b600c818154811061055557600080fd5b60009182526020909120600a9091020180546004820180549193509061057a9061378e565b80601f01602080910402602001604051908101604052809291908181526020018280546105a69061378e565b80156105f35780601f106105c8576101008083540402835291602001916105f3565b820191906000526020600020905b8154815290600101906020018083116105d657829003601f168201915b505050600584015460068501546007860154600887018054969793966001600160a01b039093169550909350906106299061378e565b80601f01602080910402602001604051908101604052809291908181526020018280546106559061378e565b80156106a25780601f10610677576101008083540402835291602001916106a2565b820191906000526020600020905b81548152906001019060200180831161068557829003601f168201915b5050505050908060090154905087565b60055481565b60075481565b336000908152600f6020526040902080546106f45760405162461bcd60e51b81526004016106eb9061345c565b60405180910390fd5b8151600910156107165760405162461bcd60e51b81526004016106eb9061355b565b815160208301511480159061073357506040820151602083015114155b801561074457506040820151825114155b6107605760405162461bcd60e51b81526004016106eb9061352d565b6001816000016000828254610775919061374b565b90915550506007805490600061078a836137c9565b90915550506040805160208101909152600081526007546009906107ad9061187b565b815481106107cb57634e487b7160e01b600052603260045260246000fd5b9060005260206000200180546107e09061378e565b80601f016020809104026020016040519081016040528092919081815260200182805461080c9061378e565b80156108595780601f1061082e57610100808354040283529160200191610859565b820191906000526020600020905b81548152906001019060200180831161083c57829003601f168201915b50506040805161010081018252600754815260208082018a8152828401889052600480546060850152336080850152662386f26fc1000060a085015284518086019095528452636e6f6e6560e01b9184019190915260c0820192909252600060e08201819052600c8054600181018255915281517fdf6966c971051c3d54ec59162606531493a51404a002842f56009d7e5cf4a8c7600a9092029182019081559251969750909586955091935061093592507fdf6966c971051c3d54ec59162606531493a51404a002842f56009d7e5cf4a8c801906003612ea9565b5060408201518051610951916004840191602090910190612ee7565b506060820151600582015560808201516006820180546001600160a01b0319166001600160a01b0390921691909117905560a0820151600782015560c082015180516109a7916008840191602090910190612ee7565b5060e082015181600901555050662386f26fc10000600560008282546109cd9190613700565b925050819055506001600860008282546109e79190613700565b909155505050505050565b600b8181548110610a0257600080fd5b60009182526020909120600690910201805460048201805491935090610a279061378e565b80601f0160208091040260200160405190810160405280929190818152602001828054610a539061378e565b8015610aa05780601f10610a7557610100808354040283529160200191610aa0565b820191906000526020600020905b815481529060010190602001808311610a8357829003601f168201915b5050505050908060050154905083565b600d54610abe906001613700565b600d819055600090610acf9061186c565b6040805160c081018252600d5480825234602080840191825233848601908152606085018981526080860188815287518085018952600080825260a08901918252968752600e855297909520865181559351600185015590516002840180546001600160a01b0319166001600160a01b0390921691909117905551600383015591516004820155925180519495509193610b6f9260058501920190612ee7565b50905050610b7c33611da9565b5050565b6000546001600160a01b031681565b805160091015610bb15760405162461bcd60e51b81526004016106eb9061355b565b8051602082015114801590610bce57506040810151602082015114155b8015610bdf57506040810151815114155b610bfb5760405162461bcd60e51b81526004016106eb9061352d565b60078054906000610c0b836137c9565b9091555050604080516020810190915260008152600754600990610c2e9061187b565b81548110610c4c57634e487b7160e01b600052603260045260246000fd5b906000526020600020018054610c619061378e565b80601f0160208091040260200160405190810160405280929190818152602001828054610c8d9061378e565b8015610cda5780601f10610caf57610100808354040283529160200191610cda565b820191906000526020600020905b815481529060010190602001808311610cbd57829003601f168201915b5050604080516101008101825260075481526020808201898152828401889052600480546060850152336080850152662386f26fc1000060a085015284518086019095528452636e6f6e6560e01b9184019190915260c0820192909252600060e08201819052600c8054600181018255915281517fdf6966c971051c3d54ec59162606531493a51404a002842f56009d7e5cf4a8c7600a90920291820190815592519697509095869550919350610db692507fdf6966c971051c3d54ec59162606531493a51404a002842f56009d7e5cf4a8c801906003612ea9565b5060408201518051610dd2916004840191602090910190612ee7565b506060820151600582015560808201516006820180546001600160a01b0319166001600160a01b0390921691909117905560a0820151600782015560c08201518051610e28916008840191602090910190612ee7565b5060e0820151816009015550507f3eb0dbab376e65b80fd3f1fef2391ead9536380ab3881078dfae8285423997e6600754848460045433662386f26fc10000604051610e79969594939291906135b7565b60405180910390a1662386f26fc1000060056000828254610e9a9190613700565b92505081905550600160086000828254610eb49190613700565b9091555050505050565b606080600b805480602002602001604051908101604052809291908181526020016000905b82821015610ff057600084815260209081902060408051608081018252600686029092018054835281516060810190925291928301906001830160038282826020028201915b815481526020019060010190808311610f295750505050508152602001600482018054610f559061378e565b80601f0160208091040260200160405190810160405280929190818152602001828054610f819061378e565b8015610fce5780601f10610fa357610100808354040283529160200191610fce565b820191906000526020600020905b815481529060010190602001808311610fb157829003601f168201915b5050505050815260200160058201548152505081526020019060010190610ee3565b505050509050610ffe612f5a565b60005b8251811015611150576000611017826001613700565b90505b835181101561113d5783818151811061104357634e487b7160e01b600052603260045260246000fd5b60200260200101516000015184838151811061106f57634e487b7160e01b600052603260045260246000fd5b602002602001015160000151101561112b578382815181106110a157634e487b7160e01b600052603260045260246000fd5b602002602001015192508381815181106110cb57634e487b7160e01b600052603260045260246000fd5b60200260200101518483815181106110f357634e487b7160e01b600052603260045260246000fd5b60200260200101819052508284828151811061111f57634e487b7160e01b600052603260045260246000fd5b60200260200101819052505b80611135816137c9565b91505061101a565b5080611148816137c9565b915050611001565b509091505090565b6000600a600554600261116b919061372c565b6111759190613718565b600080546040519293506001600160a01b03169183156108fc0291849190818181858888f193505050501580156111b0573d6000803e3d6000fd5b50806005546111bf919061374b565b60055560005b600b5481101561123557600454600b82815481106111f357634e487b7160e01b600052603260045260246000fd5b90600052602060002090600602016000015414156112235760405162461bcd60e51b81526004016106eb906134f6565b8061122d816137c9565b9150506111c5565b5061123e612f88565b600061124b600454610418565b9050600a818154811061126e57634e487b7160e01b600052603260045260246000fd5b600091825260209091200154825261128581611893565b6000611292600454610418565b9050600a81815481106112b557634e487b7160e01b600052603260045260246000fd5b60009182526020918290200154908401526112cf81611893565b60006112dc600454610418565b9050600a81815481106112ff57634e487b7160e01b600052603260045260246000fd5b60009182526020808320909101546040808801919091528051610140810182529283526001918301919091526002908201526003606082015260046080820152600560a0820152600660c0820152600760e08201526008610100820152600961012082015261137190600a9081612fa6565b506040805160208101909152600081526004546009906113909061187b565b815481106113ae57634e487b7160e01b600052603260045260246000fd5b9060005260206000200180546113c39061378e565b80601f01602080910402602001604051908101604052809291908181526020018280546113ef9061378e565b801561143c5780601f106114115761010080835404028352916020019161143c565b820191906000526020600020905b81548152906001019060200180831161141f57829003601f168201915b5050604080516080810182526004548152602081018b81529181018690526005546060820152600b805460018101825560009190915281517f0175b7a638427703f0dbe7bb9bbf987a2551717b34e79f33b5b1008d1fa01db96006909202918201908155925196975090958695509193506114dc92507f0175b7a638427703f0dbe7bb9bbf987a2551717b34e79f33b5b1008d1fa01dba01906003612ea9565b50604082015180516114f8916004840191602090910190612ee7565b5060608201518160050155505061150d611faa565b50505050505050565b60065481565b606080600c805480602002602001604051908101604052809291908181526020016000905b8282101561170c5760008481526020908190206040805161010081018252600a86029092018054835281516060810190925291928301906001830160038282826020028201915b81548152602001906001019080831161158857505050505081526020016004820180546115b49061378e565b80601f01602080910402602001604051908101604052809291908181526020018280546115e09061378e565b801561162d5780601f106116025761010080835404028352916020019161162d565b820191906000526020600020905b81548152906001019060200180831161161057829003601f168201915b50505091835250506005820154602082015260068201546001600160a01b03166040820152600782015460608201526008820180546080909201916116719061378e565b80601f016020809104026020016040519081016040528092919081815260200182805461169d9061378e565b80156116ea5780601f106116bf576101008083540402835291602001916116ea565b820191906000526020600020905b8154815290600101906020018083116116cd57829003601f168201915b5050505050815260200160098201548152505081526020019060010190611541565b50505050905061171a612fe6565b60005b8251811015611150576000611733826001613700565b90505b83518110156118595783818151811061175f57634e487b7160e01b600052603260045260246000fd5b60200260200101516000015184838151811061178b57634e487b7160e01b600052603260045260246000fd5b6020026020010151600001511015611847578382815181106117bd57634e487b7160e01b600052603260045260246000fd5b602002602001015192508381815181106117e757634e487b7160e01b600052603260045260246000fd5b602002602001015184838151811061180f57634e487b7160e01b600052603260045260246000fd5b60200260200101819052508284828151811061183b57634e487b7160e01b600052603260045260246000fd5b60200260200101819052505b80611851816137c9565b915050611736565b5080611864816137c9565b91505061171d565b600080600361042a8442613700565b600954600090819061042a8442613700565b600d5481565b600a5481106118b45760405162461bcd60e51b81526004016106eb906134ca565b805b600a546118c59060019061374b565b81101561194157600a6118d9826001613700565b815481106118f757634e487b7160e01b600052603260045260246000fd5b9060005260206000200154600a828154811061192357634e487b7160e01b600052603260045260246000fd5b60009182526020909120015580611939816137c9565b9150506118b6565b50600a80548061196157634e487b7160e01b600052603160045260246000fd5b6001900381819060005260206000200160009055905550565b611982612f88565b60015b828111611d0757600061199782610418565b9050600a81815481106119ba57634e487b7160e01b600052603260045260246000fd5b60009182526020909120015483526119d181611893565b60006119dc83610418565b9050600a81815481106119ff57634e487b7160e01b600052603260045260246000fd5b6000918252602091829020015490850152611a1981611893565b6000611a2484610418565b9050600a8181548110611a4757634e487b7160e01b600052603260045260246000fd5b600091825260208220015460408701526007805491611a65836137c9565b9091555050604080516020810190915260008152600754600990611a889061187b565b81548110611aa657634e487b7160e01b600052603260045260246000fd5b906000526020600020018054611abb9061378e565b80601f0160208091040260200160405190810160405280929190818152602001828054611ae79061378e565b8015611b345780601f10611b0957610100808354040283529160200191611b34565b820191906000526020600020905b815481529060010190602001808311611b1757829003601f168201915b50506040805161010081018252600754815260208082018d8152828401889052600480546060850152336080850152662386f26fc1000060a085015284518086019095528452636e6f6e6560e01b9184019190915260c0820192909252600060e08201819052600c8054600181018255915281517fdf6966c971051c3d54ec59162606531493a51404a002842f56009d7e5cf4a8c7600a90920291820190815592519697509095869550919350611c1092507fdf6966c971051c3d54ec59162606531493a51404a002842f56009d7e5cf4a8c801906003612ea9565b5060408201518051611c2c916004840191602090910190612ee7565b506060820151600582015560808201516006820180546001600160a01b0319166001600160a01b0390921691909117905560a0820151600782015560c08201518051611c82916008840191602090910190612ee7565b5060e091820151600991820155604080516101408101825260008152600160208201526002918101919091526003606082015260046080820152600560a0820152600660c08201526007928101929092526008610100830152610120820152611cee90600a9081612fa6565b5050505050508080611cff906137c9565b915050611985565b507f7c4e931c98ac836cf82e52e669d969fb94ad9f46c075234ac81e1556ab1151cc3383611d3c662386f26fc100008261372c565b604051611d4b939291906132d2565b60405180910390a1611d64662386f26fc100008361372c565b60056000828254611d759190613700565b925050819055508160086000828254611d8e9190613700565b90915550505050565b600f6020526000908152604090205481565b6001600160a01b0381166000908152600f60209081526040808320600d548452600e909252909120600481015460038201541415611e5557604080518082019091526004808252634452415760e01b6020909201918252611e0e916005840191612ee7565b50600281015460018201546040516001600160a01b039092169181156108fc0291906000818181858888f19350505050158015611e4f573d6000803e3d6000fd5b50611f67565b6003810154158015611e6b575080600401546001145b80611e89575080600301546001148015611e89575080600401546002145b80611ea5575080600301546002148015611ea557506004810154155b15611f3857604080518082019091526003808252622ba4a760e91b6020909201918252611ed6916005840191612ee7565b50600281015460018201546040516001600160a01b039092169181156108fc0291906000818181858888f19350505050158015611f17573d6000803e3d6000fd5b506001826000016000828254611f2d9190613700565b90915550611f679050565b604080518082019091526004808252634c4f534560e01b6020909201918252611f65916005840191612ee7565b505b7f0b0757697195159b9153065c6009e143c818510c8596fb3f2c42f6c4a5e9366c600d5482600501604051611f9d92919061368c565b60405180910390a1505050565b6000600b6001600454611fbd919061374b565b81548110611fdb57634e487b7160e01b600052603260045260246000fd5b60009182526020918290206040805160808101825260069093029091018054835281516060810190925291928301906001830160038282826020028201915b81548152602001906001019080831161201a57505050505081526020016004820180546120469061378e565b80601f01602080910402602001604051908101604052809291908181526020018280546120729061378e565b80156120bf5780601f10612094576101008083540402835291602001916120bf565b820191906000526020600020905b8154815290600101906020018083116120a257829003601f168201915b50505050508152602001600582015481525050905060008060005b600c548110156126e7576000600c828154811061210757634e487b7160e01b600052603260045260246000fd5b90600052602060002090600a020160050154856000015114156126d45760005b60038110156122165760005b600c848154811061215457634e487b7160e01b600052603260045260246000fd5b506000526003811015612203578660200151826003811061218557634e487b7160e01b600052603260045260246000fd5b6020020151600c85815481106121ab57634e487b7160e01b600052603260045260246000fd5b90600052602060002090600a020160010182600381106121db57634e487b7160e01b600052603260045260246000fd5b015414156121f1576121ee600184613700565b92505b806121fb816137c9565b915050612133565b508061220e816137c9565b915050612127565b50806002141561228f576040518060400160405280600b81526020016a21b7b739b7b630ba34b7b760a91b815250600c838154811061226557634e487b7160e01b600052603260045260246000fd5b90600052602060002090600a02016008019080519060200190612289929190612ee7565b50612486565b806003141561231257604051806040016040528060098152602001682530b1b5b837ba399960b91b815250600c83815481106122db57634e487b7160e01b600052603260045260246000fd5b90600052602060002090600a020160080190805190602001906122ff929190612ee7565b5061230b600185613700565b9350612486565b8060031480156123a25750846040015160405160200161233291906131e9565b60405160208183030381529060405280519060200120600c838154811061236957634e487b7160e01b600052603260045260246000fd5b90600052602060002090600a020160040160405160200161238a9190613205565b60405160208183030381529060405280519060200120145b1561242157604051806040016040528060098152602001684a61636b706f74733160b81b815250600c83815481106123ea57634e487b7160e01b600052603260045260246000fd5b90600052602060002090600a0201600801908051906020019061240e929190612ee7565b5061241a600184613700565b9250612486565b6040518060400160405280600581526020016466616c736560d81b815250600c838154811061246057634e487b7160e01b600052603260045260246000fd5b90600052602060002090600a02016008019080519060200190612484929190612ee7565b505b60405160200161249590613274565b60405160208183030381529060405280519060200120600c83815481106124cc57634e487b7160e01b600052603260045260246000fd5b90600052602060002090600a02016008016040516020016124ed9190613205565b6040516020818303038152906040528051906020012014156126d457600c828154811061252a57634e487b7160e01b600052603260045260246000fd5b6000918252602082206006600a9092020101546040516001600160a01b03909116919066470de4df8200009082818181858883f19350505050158015612574573d6000803e3d6000fd5b5066470de4df820000600c838154811061259e57634e487b7160e01b600052603260045260246000fd5b90600052602060002090600a02016009018190555066470de4df8200006005546125c8919061374b565b60058190555060008051602061383b833981519152600c83815481106125fe57634e487b7160e01b600052603260045260246000fd5b90600052602060002090600a020160000154600c848154811061263157634e487b7160e01b600052603260045260246000fd5b90600052602060002090600a020160060160009054906101000a90046001600160a01b0316600c858154811061267757634e487b7160e01b600052603260045260246000fd5b90600052602060002090600a0201600801600c86815481106126a957634e487b7160e01b600052603260045260246000fd5b90600052602060002090600a0201600901546040516126cb949392919061357c565b60405180910390a15b50806126df816137c9565b9150506120da565b5060005b600c54811015612e02578261272057612705600184613700565b92506005546006546127179190613700565b60065560006005555b8161273357612730600183613700565b91505b600c818154811061275457634e487b7160e01b600052603260045260246000fd5b90600052602060002090600a02016005015484600001511415612df0576000836005546127819190613718565b90506040516020016127929061328b565b60405160208183030381529060405280519060200120600c83815481106127c957634e487b7160e01b600052603260045260246000fd5b90600052602060002090600a02016008016040516020016127ea9190613205565b6040516020818303038152906040528051906020012014156129c15780600c838154811061282857634e487b7160e01b600052603260045260246000fd5b90600052602060002090600a020160090181905550600c828154811061285e57634e487b7160e01b600052603260045260246000fd5b6000918252602082206006600a9092020101546040516001600160a01b039091169183156108fc02918491818181858888f193505050501580156128a6573d6000803e3d6000fd5b50806005546128b5919061374b565b60058190555060008051602061383b833981519152600c83815481106128eb57634e487b7160e01b600052603260045260246000fd5b90600052602060002090600a020160000154600c848154811061291e57634e487b7160e01b600052603260045260246000fd5b90600052602060002090600a020160060160009054906101000a90046001600160a01b0316600c858154811061296457634e487b7160e01b600052603260045260246000fd5b90600052602060002090600a0201600801600c868154811061299657634e487b7160e01b600052603260045260246000fd5b90600052602060002090600a0201600901546040516129b8949392919061357c565b60405180910390a15b6000836006546129d19190613718565b90506040516020016129e2906132a0565b60405160208183030381529060405280519060200120600c8481548110612a1957634e487b7160e01b600052603260045260246000fd5b90600052602060002090600a0201600801604051602001612a3a9190613205565b604051602081830303815290604052805190602001201415612ded57673782dace9d9000006005541115612c275780600c8481548110612a8a57634e487b7160e01b600052603260045260246000fd5b90600052602060002090600a020160090181905550600c8381548110612ac057634e487b7160e01b600052603260045260246000fd5b6000918252602082206006600a9092020101546040516001600160a01b039091169183156108fc02918491818181858888f19350505050158015612b08573d6000803e3d6000fd5b5080600654612b17919061374b565b60068190555060008051602061383b833981519152600c8481548110612b4d57634e487b7160e01b600052603260045260246000fd5b90600052602060002090600a020160000154600c8581548110612b8057634e487b7160e01b600052603260045260246000fd5b90600052602060002090600a020160060160009054906101000a90046001600160a01b0316600c8681548110612bc657634e487b7160e01b600052603260045260246000fd5b90600052602060002090600a0201600801600c8781548110612bf857634e487b7160e01b600052603260045260246000fd5b90600052602060002090600a020160090154604051612c1a949392919061357c565b60405180910390a1612ded565b673782dace9d900000600c8481548110612c5157634e487b7160e01b600052603260045260246000fd5b90600052602060002090600a020160090181905550600c8381548110612c8757634e487b7160e01b600052603260045260246000fd5b6000918252602082206006600a9092020101546040516001600160a01b039091169190673782dace9d9000009082818181858883f19350505050158015612cd2573d6000803e3d6000fd5b5080600654612ce1919061374b565b60068190555060008051602061383b833981519152600c8481548110612d1757634e487b7160e01b600052603260045260246000fd5b90600052602060002090600a020160000154600c8581548110612d4a57634e487b7160e01b600052603260045260246000fd5b90600052602060002090600a020160060160009054906101000a90046001600160a01b0316600c8681548110612d9057634e487b7160e01b600052603260045260246000fd5b90600052602060002090600a0201600801600c8781548110612dc257634e487b7160e01b600052603260045260246000fd5b90600052602060002090600a020160090154604051612de4949392919061357c565b60405180910390a15b50505b80612dfa816137c9565b9150506126eb565b506000600855612e10612e15565b505050565b6002544211612e365760405162461bcd60e51b81526004016106eb90613489565b600254421115612ea75760048054906000612e50836137c9565b9091555050426001819055600354612e6791613700565b60028190556001546040517f128fb73f2ab78d09be13785bd8bba77b0416aff50ef1188f9b674b3eda32866492612e9e92916136ad565b60405180910390a15b565b8260038101928215612ed7579160200282015b82811115612ed7578251825591602001919060010190612ebc565b50612ee392915061303a565b5090565b828054612ef39061378e565b90600052602060002090601f016020900481019282612f155760008555612ed7565b82601f10612f2e57805160ff1916838001178555612ed7565b82800160010185558215612ed75791820182811115612ed7578251825591602001919060010190612ebc565b604051806080016040528060008152602001612f74612f88565b815260200160608152602001600081525090565b60405180606001604052806003906020820280368337509192915050565b828054828255906000526020600020908101928215612ed7579160200282015b82811115612ed7578251829060ff16905591602001919060010190612fc6565b60405180610100016040528060008152602001613001612f88565b8152602001606081526020016000815260200160006001600160a01b031681526020016000815260200160608152602001600081525090565b5b80821115612ee3576000815560010161303b565b600060208284031215613060578081fd5b81356001600160a01b038116811461045d578182fd5b600060608284031215613087578081fd5b82601f830112613095578081fd5b6040516060810181811067ffffffffffffffff821117156130b8576130b8613824565b6040528083606081018610156130cc578384fd5b835b60038110156130ed5781358352602092830192909101906001016130ce565b509195945050505050565b600060208284031215613109578081fd5b5035919050565b6001600160a01b03169052565b8060005b6003811015613140578151845260209384019390910190600101613121565b50505050565b6000815180845261315e816020860160208601613762565b601f01601f19169290920160200192915050565b6000815461317f8161378e565b80855260206001838116801561319c57600181146131b0576131de565b60ff198516888401526040880195506131de565b866000528260002060005b858110156131d65781548a82018601529083019084016131bb565b890184019650505b505050505092915050565b600082516131fb818460208701613762565b9190910192915050565b60008083546132138161378e565b6001828116801561322b576001811461323c57613268565b60ff19841687528287019450613268565b8786526020808720875b8581101561325f5781548a820152908401908201613246565b50505082870194505b50929695505050505050565b6a21b7b739b7b630ba34b7b760a91b8152600b0190565b682530b1b5b837ba399960b91b815260090190565b684a61636b706f74733160b81b815260090190565b90815260200190565b6001600160a01b0391909116815260200190565b6001600160a01b039390931683526020830191909152604082015260600190565b60208082528251828201819052600091906040908185019080840286018301878501865b8381101561337b57603f19898403018552815160c081518552888201516133408a87018261311d565b508782015181608087015261335782870182613146565b6060939093015160a096909601959095525094870194925090860190600101613317565b509098975050505050505050565b60208082528251828201819052600091906040908185019080840286018301878501865b8381101561337b57603f19898403018552815161014081518552888201516133d78a87018261311d565b5087820151608082818801526133ef83880183613146565b92506060840151915060a0828189015281850151925060c0915061341582890184613110565b84015160e088810191909152818501518885036101008a0152925061343a8484613146565b94015161012097909701969096525050948701949250908601906001016133ad565b60208082526013908201527242616e206b6f206475207665206465206d756160681b604082015260600190565b60208082526021908201527f54686f69206769616e206368756120686574206b6f20746865206261742064616040820152607560f81b606082015260800190565b6020808252601290820152711a5b99195e081bdd5d081bd988189bdd5b9960721b604082015260600190565b6020808252601a908201527f4368692071756120736f2031206c616e206d6f6920726f756e64000000000000604082015260600190565b602080825260149082015273204e686170203320736f206b686163206e68617560601b604082015260600190565b602080825260079082015266010181016901c960cd1b604082015260600190565b8481526001600160a01b03841660208201526080604082018190526000906135a690830185613172565b905082606083015295945050505050565b60006101008883526135cc602084018961311d565b8060808401526135de81840188613146565b60a084019690965250506001600160a01b039290921660c083015260e0909101529392505050565b60008482526060602083015261361f6060830185613146565b9050826040830152949350505050565b600088825260e0602083015261364860e0830189613146565b604083018890526001600160a01b03871660608401526080830186905282810360a08401526136778186613146565b9150508260c083015298975050505050505050565b6000838252604060208301526136a56040830184613172565b949350505050565b918252602082015260400190565b600087825286602083015260018060a01b038616604083015284606083015283608083015260c060a08301526136f460c0830184613146565b98975050505050505050565b60008219821115613713576137136137f8565b500190565b6000826137275761372761380e565b500490565b6000816000190483118215151615613746576137466137f8565b500290565b60008282101561375d5761375d6137f8565b500390565b60005b8381101561377d578181015183820152602001613765565b838111156131405750506000910152565b6002810460018216806137a257607f821691505b602082108114156137c357634e487b7160e01b600052602260045260246000fd5b50919050565b60006000198214156137dd576137dd6137f8565b5060010190565b6000826137f3576137f361380e565b500690565b634e487b7160e01b600052601160045260246000fd5b634e487b7160e01b600052601260045260246000fd5b634e487b7160e01b600052604160045260246000fdfe20081341ca607b96803dda85baf0f0a153599a687b25ae6e458327c250cc2ce7a26469706673582212203e18f24a960c62f9c64cb5f41838fb86fb5ab77c12236746da4b1fcc83d9538c64736f6c63430008000033",
  "immutableReferences": {},
  "source": "// SPDX-License-Identifier: MIT\r\n\r\npragma solidity ^0.8.0;\r\n\r\ncontract Lottery {\r\n\r\n    address public owner;\r\n    uint private startTime;\r\n    uint public endTime;\r\n    uint private duration = 3 minutes ;\r\n    uint constant TicketPrice = 0.01 ether ;\r\n    uint public RoundId = 0;\r\n    uint public TotalJP2 = 0 ;\r\n    uint public TotalJP1 = 0 ;\r\n    uint public TicketID = 0;\r\n    uint public TotalTicket = 0 ;\r\n    \r\n    string [] private hesoTk = [\"A\",\"B\",\"C\",\"D\"];\r\n    uint [] private numberArray = [0,1,2,3,4,5,6,7,8,9];\r\n    \r\n    struct Round {\r\n        uint id;\r\n        uint [3] number ;\r\n        string coefficient ;\r\n        uint total;\r\n        }\r\n    \r\n    struct Ticket{\r\n        uint id ;\r\n        uint [3] number ;\r\n        string coefficient ;\r\n        uint roundID ;\r\n        address player ;\r\n        uint price ;\r\n        string win ;\r\n        uint prize ;\r\n    }\r\n    \r\n    Round [] public rounds;\r\n    Ticket [] public tickets ;\r\n    \r\n\r\n    event Timer(uint startRound , uint endRound);\r\n    event newTicket(uint id ,uint [3] number,string coefficient ,uint roundID , address player, uint price ) ;\r\n    event newRound(uint id,uint [3] ramdom ,string coefficient , uint total);\r\n    event totalMoney(address player,uint tongve,uint tongtien);\r\n    event Win(uint id,address player,string win , uint prize) ;\r\n    \r\n    constructor () {\r\n        owner = msg.sender;\r\n        _startNewRound();\r\n    }\r\n    \r\n    // Xc nh ch to nn smart contract .\r\n    modifier onlyOwner {\r\n        require(\r\n            msg.sender == owner,\"Only owner can call this function.\"\r\n        );\r\n        _;\r\n    }\r\n        // Hm bt u 1 vng s x\r\n    function _startNewRound() private {\r\n        require(block.timestamp > endTime,\"Thoi gian chua het ko the bat dau\");\r\n        if (block.timestamp >  endTime) {\r\n            RoundId++;\r\n            startTime =  block.timestamp ;\r\n            endTime = startTime + duration ;\r\n        emit Timer(startTime, endTime);\r\n        }\r\n    }\r\n    \r\n        // Hm mua 1 v s : nhp 1 mng 3 ch s khc nhau 0 - 10 .\r\n    function buyTicket(uint[3] memory numbers) public payable{\r\n        \r\n      \r\n        require (numbers.length == 3 , \"can nhap du 3 so\");\r\n        require ( numbers[0] >= 0 && numbers[0] <=9 ,  ' 0 - 9 ' ) ;\r\n        require ( numbers[1] != numbers[0] && numbers[1] != numbers[2] && numbers[0] != numbers[2],  ' Nhap 3 so khac nhau');\r\n        \r\n        TicketID ++ ;\r\n\r\n        string memory heso =\"\";\r\n        \r\n        heso = hesoTk[getRamdomCoefficient(TicketID)];\r\n        \r\n        \r\n        Ticket memory ticket = Ticket(TicketID, numbers,heso, RoundId,msg.sender,TicketPrice,'none',0);\r\n        \r\n        tickets.push(ticket);\r\n    \r\n        emit newTicket(TicketID,numbers,heso ,RoundId,msg.sender,TicketPrice) ;\r\n        \r\n        TotalJP2 += TicketPrice ;\r\n        TotalTicket += 1;\r\n        \r\n    }\r\n    \r\n    // Hm mua s lng v s : nhp s lng v s cn mua .\r\n    function buyMutilTickets(uint quantity) public payable {\r\n    \r\n             \r\n         uint[3] memory numbers ;\r\n        \r\n         for(uint n  = 1 ; n <= quantity ; n++){\r\n             \r\n            uint indexN1 = getRamdomArray(n);\r\n                   \r\n            numbers[0] = numberArray[indexN1];\r\n                \r\n            removeArray(indexN1) ;\r\n    \r\n            uint indexN2= getRamdomArray(n);\r\n             \r\n            numbers[1] = numberArray[indexN2] ;\r\n            \r\n            removeArray(indexN2) ;\r\n                \r\n            uint indexN3= getRamdomArray(n);\r\n                 \r\n            numbers[2] = numberArray[indexN3] ;\r\n            \r\n            TicketID ++ ;\r\n\r\n            string memory heso =\"\";\r\n        \r\n            heso = hesoTk[getRamdomCoefficient(TicketID)];\r\n        \r\n            Ticket memory ticket = Ticket(TicketID,numbers,heso ,RoundId,msg.sender,TicketPrice,'none',0);\r\n            \r\n            tickets.push(ticket);\r\n            \r\n            numberArray = [0,1,2,3,4,5,6,7,8,9];\r\n            \r\n            \r\n        }\r\n        \r\n        emit totalMoney(msg.sender,quantity,quantity*TicketPrice);\r\n        TotalJP2 += quantity * TicketPrice ;\r\n        TotalTicket += quantity;\r\n    }\r\n    \r\n    \r\n    // Hm quay s : quay ra kt qua ca 1 round .\r\n    function dial() public  {\r\n        \r\n        uint hoahongadmin = TotalJP2 * 2 / 10 ;\r\n        \r\n        payable(owner).transfer(hoahongadmin) ;\r\n            \r\n        TotalJP2 = TotalJP2 - hoahongadmin ;\r\n        \r\n         for(uint i = 0 ; i < rounds.length; i++){\r\n            require(rounds[i].id != RoundId , \"Chi qua so 1 lan moi round\");\r\n         }\r\n        \r\n        uint [3] memory numbers ;\r\n           \r\n    \r\n        uint indexN1 = getRamdomArray(RoundId);\r\n               \r\n        numbers[0] = numberArray[indexN1];\r\n            \r\n        removeArray(indexN1) ;\r\n\r\n        uint indexN2= getRamdomArray(RoundId);\r\n         \r\n        numbers[1] = numberArray[indexN2] ;\r\n        \r\n        removeArray(indexN2) ;\r\n            \r\n        uint indexN3= getRamdomArray(RoundId);\r\n             \r\n        numbers[2] = numberArray[indexN3] ;\r\n            \r\n        numberArray = [0,1,2,3,4,5,6,7,8,9];\r\n\r\n        string memory heso =\"\";\r\n        \r\n        heso = hesoTk[getRamdomCoefficient(RoundId)];\r\n            \r\n        Round memory round  = Round(RoundId,numbers,heso,TotalJP2) ;\r\n         \r\n        rounds.push(round);\r\n         \r\n        _pickWinner();\r\n  \r\n    }\r\n    \r\n    // Hm kim tra ngi trng thng v gi tin vo address ngi trng .\r\n    function _pickWinner() private{\r\n            \r\n        Round memory winner = rounds[RoundId-1];\r\n\r\n        uint countJackpots2 = 0 ;\r\n        uint countJackpots1 = 0 ;\r\n        \r\n        for(uint n = 0 ; n < tickets.length; n++){\r\n         uint count =0;\r\n            if(winner.id == tickets[n].roundID){\r\n                for(uint i =0 ; i < winner.number.length ;i++){\r\n                    for(uint j = 0 ; j < tickets[n].number.length; j++){\r\n                        if(tickets[n].number[j] == winner.number[i])\r\n                            count +=1 ;\r\n                    }\r\n                }\r\n                \r\n            if(count == 2 ){\r\n              tickets[n].win = 'Consolation' ;\r\n            }\r\n\r\n            else  if(count == 3){\r\n                 tickets[n].win = 'Jackpots2'; \r\n                 countJackpots2 += 1 ;\r\n             }\r\n\r\n            else if(count == 3 && keccak256(abi.encodePacked(tickets[n].coefficient)) == keccak256(abi.encodePacked(winner.coefficient))){ \r\n                tickets[n].win = 'Jackpots1';\r\n                countJackpots1 +=1 ;\r\n            }\r\n            \r\n            else{\r\n                 tickets[n].win = 'false' ;\r\n            }\r\n\r\n\r\n            if(keccak256(abi.encodePacked(tickets[n].win)) == keccak256(abi.encodePacked(\"Consolation\"))){\r\n\r\n              payable(tickets[n].player).transfer( 0.02 ether) ;\r\n              tickets[n].prize = 0.02 ether ;\r\n            \r\n              TotalJP2 = TotalJP2 - 0.02 ether ;\r\n              \r\n              emit  Win(tickets[n].id ,tickets[n].player, tickets[n].win ,tickets[n].prize);\r\n            }\r\n        }\r\n            \r\n\r\n    }\r\n\r\n        for(uint m = 0 ; m < tickets.length; m++){\r\n\r\n            if(countJackpots2 == 0){\r\n                countJackpots2 +=1; // fix err chia cho 0\r\n                TotalJP1 = TotalJP1 + TotalJP2  ;\r\n                TotalJP2 = 0 ;\r\n            }\r\n\r\n            if(countJackpots1 == 0){\r\n                countJackpots1 +=1; // fix err chia cho 0\r\n            }\r\n\r\n            if(winner.id == tickets[m].roundID){\r\n    \r\n                uint jackpot2 = TotalJP2 / countJackpots2  ;\r\n                if(keccak256(abi.encodePacked(tickets[m].win)) == keccak256(abi.encodePacked(\"Jackpots2\"))){\r\n                    tickets[m].prize = jackpot2 ;\r\n                    payable(tickets[m].player).transfer(jackpot2);\r\n                    TotalJP2 = TotalJP2 - jackpot2 ;\r\n                    emit  Win(tickets[m].id ,tickets[m].player, tickets[m].win ,tickets[m].prize);\r\n                        \r\n                }\r\n            \r\n                uint jackpot1 = TotalJP1 / countJackpots1  ;\r\n                if(keccak256(abi.encodePacked(tickets[m].win)) == keccak256(abi.encodePacked(\"Jackpots1\"))){\r\n\r\n                    if(TotalJP2 > 4 ether){\r\n                        tickets[m].prize = jackpot1 ;\r\n                        payable(tickets[m].player).transfer(jackpot1);\r\n                        TotalJP1 = TotalJP1 - jackpot1 ;\r\n                        emit  Win(tickets[m].id ,tickets[m].player, tickets[m].win ,tickets[m].prize);\r\n                    }\r\n                    \r\n                    else {\r\n                        tickets[m].prize = 4 ether ;\r\n                        payable(tickets[m].player).transfer(4 ether);\r\n                        TotalJP1 = TotalJP1 - jackpot1 ;\r\n                        emit  Win(tickets[m].id ,tickets[m].player, tickets[m].win ,tickets[m].prize);\r\n                    }\r\n                        \r\n                }\r\n            }\r\n        }\r\n\r\n\r\n\r\n        TotalTicket = 0 ;\r\n        \r\n        _startNewRound();\r\n}\r\n    \r\n    \r\n    // Xem dy s ca V theo ID .\r\n    // function getNumberTicketByID (uint id) public view returns (uint[3] memory) {\r\n        \r\n    //     for(uint i = 0 ; i < tickets.length;i++){\r\n    //         if(id == tickets[i].id){\r\n    //             return tickets[i].number;\r\n    //         }\r\n    //     }\r\n        \r\n    // }\r\n    \r\n     // Xem dy s ca Round theo ID .\r\n    // function getNumberRoundByID (uint id) public view returns (uint[3] memory) {\r\n        \r\n    //     for(uint i = 0 ; i < rounds.length;i++){\r\n    //         if(id == rounds[i].id){\r\n    //             return rounds[i].number;\r\n    //         }\r\n    //     }\r\n        \r\n    // }\r\n    \r\n    // Ly mng Round t ID cao n ID thp\r\n    function getRound() public view returns(Round [] memory){\r\n        Round [] memory arrayR  ;\r\n        arrayR = rounds;\r\n        Round  memory temp ;\r\n        \r\n        for(uint i = 0 ; i < arrayR.length ; i++){\r\n           for (uint j = i + 1; j < arrayR.length; j++) {\r\n                if (arrayR[i].id < arrayR[j].id) {\r\n                    \r\n                    temp = arrayR[i];\r\n                    arrayR[i] =  arrayR[j];\r\n                     arrayR[j] = temp;\r\n                }\r\n             }\r\n        \r\n        }\r\n        \r\n        return arrayR ;\r\n    }\r\n    \r\n    // Ly mng Ticket t ID cao n ID thp\r\n    function getTicket() public view returns(Ticket [] memory) {\r\n        Ticket [] memory arrayTk  ;\r\n        arrayTk = tickets;\r\n        Ticket  memory temp ;\r\n        \r\n        for(uint i = 0 ; i < arrayTk.length ; i++){\r\n           for (uint j = i + 1; j < arrayTk.length; j++) {\r\n                if (arrayTk[i].id < arrayTk[j].id) {\r\n                    \r\n                     temp = arrayTk[i];\r\n                     arrayTk[i] =  arrayTk[j];\r\n                     arrayTk[j] = temp;\r\n                }\r\n             }\r\n        \r\n        }\r\n        \r\n        return arrayTk ;\r\n    }\r\n    \r\n    \r\n    // Hm xa 1 phn t trong mng numberArray\r\n    function removeArray(uint _index) public {\r\n        require(_index < numberArray.length, \"index out of bound\");\r\n\r\n        for (uint i = _index; i < numberArray.length - 1; i++) {\r\n            numberArray[i] = numberArray[i + 1];\r\n        }\r\n        numberArray.pop();\r\n    }\r\n    \r\n    // Hm ramdom mng numberArray\r\n    function getRamdomArray(uint _index) public view returns(uint256){\r\n        \r\n       uint256 ramdom =  uint256(keccak256(abi.encodePacked(block.timestamp + _index))) % numberArray.length;\r\n            \r\n       return ramdom ;\r\n               \r\n    }\r\n\r\n    function getRamdomCoefficient(uint _index) public view returns(uint256){\r\n        \r\n       uint256 ramdom =  uint256(keccak256(abi.encodePacked(block.timestamp + _index))) % hesoTk.length;\r\n            \r\n       return ramdom ;\r\n               \r\n    }\r\n    \r\n    \r\n    \r\n    // Xem s d ca smart contract\r\n    function getBalance() public view returns (uint256) {\r\n        return address(this).balance;\r\n    }\r\n    \r\n    \r\n //=======================================================================================//\r\n\r\n    // Phn 2 Mini Game    \r\n    uint public gameID= 0 ;\r\n     struct Game {\r\n        uint id ;\r\n        uint amout ;\r\n        address player ;\r\n        uint sochon ;\r\n        uint ramdom ;\r\n        string kq;\r\n    }\r\n\r\n    struct Ve {\r\n        uint ve  ;\r\n    }\r\n\r\n    event Result(uint256 id, string winAmount);\r\n\r\n    mapping (uint => Game) public games ;\r\n    mapping (address => Ve) public  ves ;\r\n\r\n    // Hm game ba ,ko , bao => ngi chi chn \r\n    function GameMini1 (uint chon ) public payable {\r\n        gameID = gameID +1 ;\r\n\r\n        uint ramdom = getRamdom(gameID);\r\n\r\n        games[gameID] = Game(gameID, msg.value, msg.sender , chon , ramdom , \"\");\r\n\r\n        kq (msg.sender);\r\n    }\r\n    // 0 : bua , 1 : keo , 2 : bao\r\n    function kq (address player) private{\r\n\r\n       Ve storage tk = ves[player];\r\n\r\n       Game storage game = games[gameID];\r\n\r\n       if(game.sochon == game.ramdom){\r\n            game.kq = \"DRAW\" ; \r\n            payable(game.player).transfer(game.amout);\r\n       }\r\n\r\n       else  if(game.sochon == 0  && game.ramdom == 1 || game.sochon == 1 && game.ramdom == 2 || game.sochon == 2  && game.ramdom == 0 ){\r\n           game.kq = \"WIN\" ;\r\n           payable(game.player).transfer(game.amout);\r\n           tk.ve += 1 ;\r\n       }\r\n\r\n       else {\r\n           game.kq = \"LOSE\" ;\r\n       }\r\n\r\n       emit Result( gameID, game.kq);\r\n    }\r\n\r\n    // Hm ramdom GameMini\r\n    function getRamdom(uint _index) public view returns(uint256){\r\n        \r\n       uint256 ramdom =  uint256(keccak256(abi.encodePacked(block.timestamp + _index))) % 3;\r\n            \r\n       return ramdom ;\r\n               \r\n    }\r\n\r\n    // Hm mua 1 v s : nhp 1 mng 3 ch s khc nhau 0 - 9 bng phiu gameMini .\r\n    function buyTicketGame(uint[3] memory numbers) public {\r\n        \r\n        Ve storage tk = ves[msg.sender];\r\n\r\n        require(tk.ve > 0 , \"Ban ko du ve de mua\");\r\n      \r\n        require (numbers.length == 3 , \"can nhap du 3 so\");\r\n        require ( numbers[0] >= 0 && numbers[0] <=9 ,  ' 0 - 9 ' ) ;\r\n        require ( numbers[1] != numbers[0] && numbers[1] != numbers[2] && numbers[0] != numbers[2],  ' Nhap 3 so khac nhau');\r\n\r\n        tk.ve -=1 ;\r\n        \r\n        TicketID ++ ;\r\n\r\n        string memory heso =\"\";\r\n        \r\n        heso = hesoTk[getRamdomCoefficient(TicketID)];\r\n        \r\n        Ticket memory ticket = Ticket(TicketID, numbers,heso, RoundId,msg.sender,TicketPrice,'none',0);\r\n        \r\n        tickets.push(ticket);\r\n\r\n\r\n        TotalJP2 += TicketPrice ;\r\n        TotalTicket += 1;\r\n        \r\n    }\r\n    \r\n}",
  "sourcePath": "E:\\Bao_ve_do_an\\10_12\\lottery_app\\lottery_app\\contracts\\Lottery.sol",
  "compiler": {
    "name": "solc",
    "version": "0.8.0+commit.c7dfd78e.Emscripten.clang"
  },
  "schemaVersion": "3.4.3",
  "updatedAt": "2021-12-11T07:30:22.583Z",
  "networkType": "ethereum",
  "devdoc": {
    "kind": "dev",
    "methods": {},
    "version": 1
  },
  "userdoc": {
    "kind": "user",
    "methods": {},
    "version": 1
  }
}